:020000040800F2
:1000000000100020050200080D0200080F02000881
:1000100000000000000000000000000000000000E0
:10002000000000000000000000000000850900083A
:1000300000000000000000008B0100088909000892
:10004000170200080000000017020008170200084D
:1000500017020008650500081702000817020008CB
:10006000000000001702000817020008170200082D
:10007000170200081702000817020008000000001D
:10008000170200080000000000000000170200082E
:1000900000000000170200081702000817020008FD
:1000A000000000001702000800000000170200080E
:1000B00000F002F800F03EF80CA030C80838241810
:1000C0002D18A246671EAB4654465D46AC4201D190
:1000D00000F030F87E460F3E0FCCB6460126334284
:1000E00000D0FB1AA246AB4633431847F425000064
:1000F00014260000103A02D378C878C1FAD8520703
:1001000001D330C830C101D504680C6070470000CD
:100110000023002400250026103A01D378C1FBD823
:10012000520700D330C100D50B6070471FB51FBD0B
:1001300010B510BD00F0E3F91146FFF7F7FF00F02E
:1001400027FE00F0FBF903B4FFF7F2FF03BC00F059
:1001500001FA0000084B19680868203080F309880C
:10016000022080F31488BFF36F8F3FBCAE4608BCFB
:1001700004BC62B6184700008C000020EFF310802A
:1001800072B6704780F310887047EFF309800E4B0A
:100190001A6820381060F0C044464D4656465F4607
:1001A000F0C008B572B601F0F5FB62B60CBC116880
:1001B00008681030F0C8A046A946B246BB4680F396
:1001C00009882038F0C818478C00002070B5054613
:1001D0000C46164602E00FCC0FC5103E102EFAD288
:1001E000082E02D303CC03C5083E042E07D301CC4E
:1001F00001C5361F03E021782970641C6D1C761E32
:10020000F9D270BD0748804707480047FEE7FEE780
:10021000FEE7FEE7FEE7FEE704480549054A064B10
:1002200070470000AD090008B1000008000A002076
:1002300000100020000C0020000C0020F8B5042A5B
:100240002CD3830712D00B78491C0370401C521E1C
:1002500083070BD00B78491C0370401C521E830788
:1002600004D00B78491C0370401C521E8B079B0F57
:1002700005D0C91ADF002023DE1B08C90AE0FFF7FA
:10028000A5FFF8BD1D4608C9FD401C46B4402C43DF
:1002900010C0121F042AF5D2F308C91A521EF0D456
:1002A0000B78491C0370401C521EEAD40B78491C81
:1002B0000370401C012AE4D409780170F8BDD2B261
:1002C00010B513029A1813049A1800F005F910BD1E
:1002D000002203098B4273D3030A8B4258D3030BCA
:1002E0008B423CD3030C8B4221D312E003460B43D9
:1002F0007FD4002243088B4274D303098B425FD31F
:10030000030A8B4244D3030B8B4228D3030C8B424A
:100310000DD3FF22090212BA030C8B4202D3121230
:10032000090265D0030B8B4219D300E0090AC30B05
:100330008B4201D3CB03C01A5241830B8B4201D3B2
:100340008B03C01A5241430B8B4201D34B03C01A9B
:100350005241030B8B4201D30B03C01A5241C30A13
:100360008B4201D3CB02C01A5241830A8B4201D384
:100370008B02C01A5241430A8B4201D34B02C01A6E
:100380005241030A8B4201D30B02C01A5241CDD213
:10039000C3098B4201D3CB01C01A524183098B425E
:1003A00001D38B01C01A524143098B4201D34B0147
:1003B000C01A524103098B4201D30B01C01A5241AA
:1003C000C3088B4201D3CB00C01A524183088B4231
:1003D00001D38B00C01A524143088B4201D34B001A
:1003E000C01A5241411A00D201465241104670478C
:1003F0005DE0CA0F00D04942031000D34042534091
:1004000000229C4603098B422DD3030A8B4212D350
:10041000FC22890112BA030A8B420CD38901921182
:100420008B4208D3890192118B4204D389013AD0BF
:10043000921100E08909C3098B4201D3CB01C01A94
:10044000524183098B4201D38B01C01A52414309A7
:100450008B4201D34B01C01A524103098B4201D395
:100460000B01C01A5241C3088B4201D3CB00C01A02
:10047000524183088B4201D38B00C01A5241D9D21A
:1004800043088B4201D34B00C01A5241411A00D29B
:100490000146634652415B10104601D34042002B97
:1004A00000D54942704763465B1000D3404201B516
:1004B0000020C046C04602BD70477047704701E04B
:1004C00004C0091F0429FBD28B0701D50280801CC0
:1004D000C90700D00270704700290BD0C30702D0B3
:1004E0000270401C491E022904D3830702D50280F2
:1004F000801C891EE3E70022EEE70022DFE7754655
:1005000000F024F8AE46050069465346C008C00016
:10051000854618B020B5FFF77FFE60BC002749086C
:10052000B6460026C0C5C0C5C0C5C0C5C0C5C0C58B
:10053000C0C5C0C5403D49008D46704710B5044652
:10054000C046C0462046FFF7FEFD10BD004870477C
:100550009C09002001491820ABBEFEE726000200DE
:100560007047000010B50B4C002060600A484169DC
:10057000C9070ED041690122114341610749206931
:1005800001F0E9FB6068002803D00120044900075E
:10059000486010BD0000002000040140040000205D
:1005A00000ED00E070B5002401220021A02000F041
:1005B00091F9641CE4B2042CF6D301250024012235
:1005C0000021284600F086F9641CE4B2042CF6D31E
:1005D0006D1CEDB2092DF1D3002401220021A020D1
:1005E00000F078F9641CE4B2042CF6D370BD00006E
:1005F000F8B5104900260125C0004718B95D002252
:10060000284600F067F9761CF6B200240022114655
:10061000A02000F05FF9641CE4B2022CF6D30122A2
:100620000021A02000F056F96D1CEDB2092DE5D394
:10063000F8BD00001D000020F8B50F461549002543
:100640000124C000461800221146A02000F042F903
:10065000072C01D1012F15D0715D0022204600F03A
:1006600039F96D1C0022EDB21146A02000F032F9DC
:1006700001220021A02000F02DF9641CE4B2092C15
:10068000E1D3F8BD715D012001430022204600F056
:1006900021F9E6E71D00002070B51049002501246E
:1006A000C000461800221146A02000F013F90022D5
:1006B0001146A02000F00EF9715D0022204600F0E6
:1006C00009F96D1CEDB201220021A02000F002F911
:1006D000641CE4B2092CE5D370BD00001D000020AD
:1006E000F8B50D4900260125C0004718B95D012263
:1006F000284600F0EFF8761CF6B2002400221146DE
:10070000A02000F0E7F8641CE4B2042CF6D36D1CC2
:10071000EDB2092DEAD3F8BD1D000020F3B581B07C
:1007200001980078002822D0C10049480026012500
:100730000F18B95D0022284600F0CCF8761CF6B2FE
:10074000002400221146A02000F0C4F8641CE4B28A
:10075000022CF6D301220021A02000F0BBF86D1C72
:10076000EDB2092DE5D33B480021017028E0394E58
:100770003078002824D1002401220021A02000F09C
:10078000A9F8641CE4B2042CF6D30125002401224C
:100790000021284600F09EF8641CE4B2042CF6D335
:1007A0006D1CEDB2092DF1D3002401220021A020FF
:1007B00000F090F8641CE4B2042CF6D301203070F1
:1007C000029800280198407801D0012100E0002122
:1007D000FFF732FF01981E4F807800250124C000EA
:1007E000C61900221146A02000F074F8002211461C
:1007F000A02000F06FF8715D0022204600F06AF83A
:100800006D1CEDB201220021A02000F063F8641CF1
:10081000E4B2092CE5D301980026C0780125C00078
:10082000C719B95D0122284600F054F8761CF6B2CB
:10083000002400221146A02000F04CF8641CE4B211
:10084000042CF6D36D1CEDB2092DEAD303B0F0BD34
:100850001D0000201C00002070B5002101220F2087
:1008600000F038F801220021092000F033F80122BD
:1008700007210A2000F02EF8012207210B2000F0AA
:1008800029F8012211460C2000F024F8002401224E
:100890000021A02000F01EF8641CE4B2042CF6D362
:1008A0000125002401220021284600F013F8641CD1
:1008B000E4B2042CF6D36D1CEDB2092DF1D3002463
:1008C00001220021A02000F005F8641CE4B2042CF1
:1008D000F6D370BDF8B50446002502200927FF06AF
:1008E0000E46B861002A00D0B8620820B862042021
:1008F000B861012000F0B6F80420B862012000F0D1
:10090000B1F86D1CEDB2042DF1D3002508271C4869
:100910003C4201D0876100E0876204200921C906BA
:100920008861012000F09EF804200921C906886230
:10093000012000F097F860066D1C040EEDB2042D46
:10094000E4D309240025E4060427F009C00102D0FD
:100950000820A06101E00820A062A761012000F04A
:1009600081F8A762012000F07DF870066D1C060E6C
:10097000EDB2082DE9D30220A0610820A062F8BDE5
:10098000000000487047000010B5FFF7F7FB044671
:1009900001F06AFC002803D00120034900074860E9
:1009A0002046FFF7EFFB10BD00ED00E013480168A3
:1009B0000122114301604168114A11404160016800
:1009C000104A1140016001680122920491430160C4
:1009D00041683F22120491434160C16A090909013B
:1009E000C162016BFF22143291430163416B4908DC
:1009F00049004163002181607047000000100240FF
:100A00000CB8FF08FFFFF6FE01B481B0134901984E
:100A100048430190009016D01149884217D8002809
:100A200013DDC007C00F02D00199491E0191009942
:100A3000401C491C884206DA019A801C521E521E34
:100A400001928842F8DB02B070470020EFE701987E
:100A5000401E0190FCD102B070470000102700003A
:100A6000FFFFFF7F01B481B001980A214843019044
:100A7000009016D01049884217D8002813DDC0070F
:100A8000C00F02D00199491E01910099401C491CD8
:100A9000884206DA019A801C521E521E0192884238
:100AA000F8DB02B070470020EFE70198401E01908C
:100AB000FCD102B070470000FFFFFF7FF0B5844C0F
:100AC0002068012109040843206020688003FCD5C8
:100AD0008048026811231A430260206801252D0610
:100AE000A843206020688001FCD4606801221205C0
:100AF000104360606068084360602068284320609D
:100B000020688001FCD56068022630436060606820
:100B10000007800F0228FAD100F0ECF8606901218B
:100B2000490408436061A06989110843A061E06934
:100B30003043E0610920C00601680322120291439C
:100B4000FF310131016041681022914341608168A9
:100B50000322120211438160C1689143C160016A9E
:100B60000F221204914301625C4A5B49D162FF216A
:100B700077319162D16801221143584AD1605849B6
:100B80000C220E68FF2308241B029E430E6053496B
:100B9000096801263143514E3160066891028E4347
:100BA000A702F619066046684027BE43466086687D
:100BB0000E438660C6688E43C660016A0F263606FD
:100BC000B14349190162056811038D432603AD192C
:100BD000056045688026B543456085680D4385609E
:100BE000C5688D43C560016A65060901090949198F
:100BF00001623C4D002169627821E962A969FF2503
:100C000002352943374DA961A969374D2943354D2F
:100C1000A961A9680325334E2943B16031680126D3
:100C20003143304E316001689143091D01604168D4
:100C30000226B1434160816811438160C1689143DC
:100C4000C160016AF02291430162026830218A4347
:100C500010320260466804229643466082680A4366
:100C60008260C2688A43C260016A0F221202914305
:100C700001620268C0218A43403202604268A24396
:100C8000426082680A438260C2688A43C260016A25
:100C90000F221203914301620168A9430160416878
:100CA000490849004160816829438160C168A943BE
:100CB000491CC160016A0909090101620B4801214F
:100CC0000160C1600A48016899430160F0BD0000FD
:100CD0000010024000200240FFF90000002C0140FB
:100CE0000CE400E000040040F0F0000000040140CB
:100CF00004E400E010B42248016B102211430163A8
:100D00004169520311434161C16912011143C1613B
:100D10000920C0060368032189048B4394101B1922
:100D20000360436814132343436083680B43836069
:100D3000C3688B43C360416AF023994340314162E9
:100D40000368032109058B439A1802604368620017
:100D50001343436083680B438360C3688B43C36062
:100D6000416A0F231B0299438918416206480549CD
:100D70000161012101600549416010BC704700001C
:100D800000100240895E801000540040D000020034
:100D900082B0FFF793FE1B48FF2100900023012241
:100DA000F53119A001F0DEFB194C0028606109D073
:100DB00001F054FA002100910B46024601216069BE
:100DC00001F05CFC03220021012000F04BFE2061B9
:100DD000002816D00F490220019100900023C8225C
:100DE0000DA1104801F066F90F4901200191009012
:100DF0000023C8220DA1104801F05CF900F048FD65
:100E0000FEE7FEE72513000854696D6572000000D7
:100E100000000020080000205461736B4D61696E72
:100E2000000000008D1600080C0000205461736B58
:100E3000445333323331000079140008F8B5134CB1
:100E40000F46A66805462068001D00F053FA681C8E
:100E500007D1002F05D021680D48091D00F09DFA2B
:100E6000F8BD2068751945602168B54204D2606BF1
:100E7000091D00F079FAF8BD206B091D00F074FA25
:100E8000606A8542F7D26562F8BD00008C000020E0
:100E900060090020034C20680128FCD900F0AAFA60
:100EA000F9E70000E8080020F0B589B0074601F036
:100EB000D5F9294C0390A168884246D2E0680068C1
:100EC000002831D0E068C068C5680668281D00F0B9
:100ED00011FA696A28468847E869012820D1A8697B
:100EE0008019B04206D92D616860291DE06800F0C4
:100EF0003BFA15E000200590002D1BD02168002949
:100F000021D001960295009001F098F9022813D0A3
:100F100000231A466946206800F0E5FD002812D03B
:100F2000E06800680028CDD12169E068E1602061B7
:100F300001200BE072B6FEE700236946059A20689F
:100F400000F0D1FDEAE772B6FEE7002038600398B2
:100F5000A060039809B0F0BDC400002003480068F9
:100F6000401C72B600D0FEE7FEE7000088000020BB
:100F70009C4C8CB0E0680168002936D0C06800271E
:100F8000056800F0FFFC05A8FFF78EFF06460598F0
:100F900000282DD001F080FA002206A9206800F078
:100FA00014FF0028E6D0069800286EDB089F7869B9
:100FB000002802D0381D00F09DF901F04FF9009093
:100FC000A16888427ED2E068006800287BD0E06893
:100FD000C068C5680668281D00F08CF9696A284653
:100FE0008847E869012851D075E001270025C8E746
:100FF000002F10D020690068002844D00027A91BCA
:101000003A46206800F016FA01F046FA0028C3D1EB
:1010100000F0F0F9C0E7B542F1D801F03DFAE06820
:101020003746C068C668301D00F064F9F0690128D1
:1010300023D1B06936614219314628467260BA42FE
:1010400008D88A69781B90420DD2091D206900F0EA
:101050008BF912E0874201D2AA4204D2091DE0684E
:1010600000F082F909E000200346014600902A467C
:10107000304601F003FB002803D0716A30468847F0
:101080008AE772B6FEE70127B9E779E0A869801917
:10109000B04206D92D616860291DE06800F064F94E
:1010A00019E0284600210D4600282DD02268002A8C
:1010B00033D003960291049001F0C0F8022825D0A5
:1010C000002301E010E00BE01A4602A9206800F0BE
:1010D0000AFD002821D0E0680068002800D076E7EB
:1010E0002169E068E16020610098A060069900989D
:1010F0000A296DD20A007A441279921897440F0F88
:101100000F684C650F0F684C72B6FEE700232A4645
:1011100002A9206800F0E7FCDBE772B6FEE7079A59
:10112000BB693946D218079B3F617A60824204D876
:101130008A69C01A904204D23BE0984240D29A4257
:101140003ED3796A38468847F869012840D1079923
:10115000BA69002089180546002F12D02268002A9B
:1011600018D004970391029001F068F802280AD081
:1011700000231A4602A9206800F0B5FC002809D017
:1011800026E072B6FEE700232A4602A9206800F096
:10119000AAFCF3E772B6FEE7079ABA61002A0DD0FF
:1011A00012183F6139467A60824209D8886900285E
:1011B0000ED9091D206900F0D7F809E072B6FEE7E4
:1011C000091DE06800F0D0F802E0384600F00CF9A4
:1011D000002206A9206800F0F8FD002800D0E2E611
:1011E000C8E60000C4000020F8B5044600F0E2F8AC
:1011F000254640350526AE57002E0FDD27462437FD
:10120000606A00280AD0384601F012F9002801D09F
:1012100000F09CFA761E76B2002EF1DC0027FF4328
:101220006F7100F0D3F800F0C5F80426AE57002E19
:1012300010DD204610300090206900280AD0009868
:1012400001F0F6F8002801D000F080FA761E76B2A0
:10125000002EF1DC2F7100F0B9F8F8BD70B504462E
:101260000025400704D06007400F0821081A041920
:1012700000F088FB0E494868002803D10D48C008DB
:10128000C00048600A68F9231019DB00984209D2AF
:10129000904207D94B6808609D1801F0FDF8002DB9
:1012A00002D003E001F0F8F800F037F8284670BDEE
:1012B00080000020E000002004490868002803D0D6
:1012C0000868826C521C8264086870478C00002099
:1012D00010B40124031F24061C601B1F1960191F72
:1012E000034B0B6014390A6010BC40387047000093
:1012F0005D0F00084368826801699A6083684268EC
:101300005A604A68824201D182684A6000220261C2
:101310000868401E08600868704772B6FEE772B63B
:10132000FEE770470848002143780122002B02D0D5
:101330000270417001E0017042700920C0064169ED
:1013400010225140416170470000002001460831E1
:1013500000224160D243C1608260016100210160CE
:10136000704700210161704730B40B685A1C02D0ED
:101370000246083202E0026904E022465468256809
:101380009D42FAD953684B6099608A605160086148
:101390000168491C016030BC704742684A6093682C
:1013A0008B6093685960916008610168491C016015
:1013B0007047000072B604480168491C0160BFF321
:1013C0004F8FBFF36F8F7047880000200549086872
:1013D000002804D0401E086000D162B6704772B683
:1013E000FEE7000088000020002801D072B6FEE76A
:1013F000704700000120044900074860BFF34F8F89
:10140000BFF36F8F7047000000ED00E010B4084B91
:101410000022D4001C59002C04D0521C082AF8D3F6
:1014200010BC7047D2009950D118486010BC70476A
:10143000A808002070B515460E460446FFF7BAFF0F
:1014400020464030042282560021521C00D10171F6
:1014500005228256521C00D14171FFF7B7FFA06BE5
:10146000002805D120462A463146243000F086F96E
:101470002046FFF7B9FE70BD00256C4982B02020E0
:1014800008606B4C0927FF066A4A10690028FBD0E8
:101490000021C943164600F02BFD67492020086053
:1014A000B06800F021FA3869C00702D13869C00776
:1014B000FCD00520FFF7A8FAFFF774F80A20207087
:1014C000FFF796F85D48002141623021C16238691A
:1014D000C0072AD05948406AC005060E172E00D909
:1014E00000260A213046FEF7F3FEA070002805D042
:1014F0000A214843301AE070012505E0E670002D0E
:1015000002D0FFF74FF800252078FFF771F8A07898
:10151000002801D0FFF7C0F8E078FFF7E1F81420C9
:10152000FFF772FA3869C007D4D1A078E1780001DA
:101530000843C0B200903869C00702D13869C007BB
:10154000FCD00520FFF760FA0B202070FFF750F861
:101550003A48002141627821C1623969C9072AD01D
:101560003648406AC005060E3B2E00D900260A21E7
:101570003046FEF7ADFEA070002805D00A21484392
:10158000301AE070012505E0E670002D02D0FFF76B
:1015900009F800252078FFF72BF8A078002801D063
:1015A000FFF77AF8E078FFF79BF81420FFF72CFAA2
:1015B0003869C007D4D1A078E17800010843C6B2E9
:1015C0003869C00702D13869C007FCD01420FFF782
:1015D0001BFAFEF7E7FF1B48194941608169C907FB
:1015E00005D0012181624168421411434160816943
:1015F000890703D400BF81698907FBD586628169A9
:10160000890703D400BF81698907FBD500998162EE
:1016100000BF0D494A69012002434A610349202065
:1016200008600448806800F0FBF82DE700E100E066
:10163000180000200000002080E100E000040040CD
:10164000D0000302005400400004014010B50028FF
:101650000FD00949CA6A002A01D072B6FEE7CA6AE9
:10166000521CCA620021FFF7E9FB00F015FF0028B9
:1016700001D1FFF7BFFE10BD8C0000200249CA69EE
:1016800002608968416070478C000020FFF7E4F831
:10169000294F0126294C2A4D76036760A069C007AF
:1016A00004D00120A062606830436060A0694006F9
:1016B00003D400BFA0694006FBD522486060606883
:1016C00030436060A069400703D400BFA0694007B1
:1016D000FBD5606AC1B2A069400703D400BFA0690E
:1016E0004007FBD5606AA269C0B2520603D400BFAE
:1016F000A2695206FBD5626801239B031A4362600C
:101700000A090907AA70090FE970810602D50221AA
:10171000297005E0C10601D5012100E000212970F2
:101720000007000F6870084801781830FEF7F6FFD0
:10173000C820FFF78BFFB0E7D00001000054004045
:1017400018000020D0040200000000200149012000
:10175000886170478C00002010B50C46002809D025
:10176000054909681831FFF7FFFD01212046FFF701
:1017700065FB10BD72B6FEE78C00002070B5144604
:101780000D4600280DD0084909681831FFF705FEFD
:10179000002C01D00025ED4321462846FFF74EFBE3
:1017A00070BD72B6FEE700008C00002070B504002A
:1017B0002ED0A26C002A0ED0606C884200D3014665
:1017C000E06A884224D0012A22D1134D2A6894422B
:1017D00003D172B6FEE772B6FEE7E162A269002AA3
:1017E00002DB0322511AA16114220C4E504361699D
:1017F000801981420CD1201DFFF77CFDE06AE96869
:10180000884206D8142148438019211DFFF7C5FDE1
:1018100070BDE860F6E700008C000020E8080020BA
:1018200070B5040010D0164D2868844225D0FFF70B
:10183000C1FD1449606988421DD11349A06A8842DC
:1018400019D0002802D016E072B6FEE7201DFFF77F
:1018500051FDE06AE968884210D8142148430B49D9
:101860004018211DFFF799FDE06A2968C96A88427E
:1018700001D3FFF7BFFDFFF7A9FD70BDE860ECE7FE
:101880008C000020600900204C090020E80800209E
:1018900010B582B00F48002401902346C8220EA143
:1018A00000940F4800F006FC012803D100F0A2FECE
:1018B000012803D0401C0BD172B6FEE772B600219E
:1018C0000848C943416201210161846000F0A8F821
:1018D00002B010BDB400002049444C450000000097
:1018E000950E00088C00002070B50446FFF762FDDD
:1018F000224D002C00D12C68201DFFF7FBFCA06AB4
:10190000002803D020461830FFF7F4FC211D1C48A6
:10191000FFF743FD20464030017C0026012900D11D
:101920000674FFF753FD286900280CD0FFF742FD2D
:10193000286B0068002811D0286BC068C068406818
:101940006862FFF743FD286884420CD128690028AB
:101950000AD0E86A002804D072B6FEE70020C0432F
:10196000EEE7FFF747FD70BD0548006869688842EB
:1019700001D12E6070BD00F00DF870BD8C0000200C
:10198000600900200248C16A491CC162704700001A
:101990008C00002010B51F4CE06A002802D0012006
:1019A000A06110BD0020A06120681B49026B106877
:1019B000884208D15068884205D19068884202D197
:1019C000D068884204D0216820683431FFF7A7FC32
:1019D000E0681421114A41435158002907D10028D9
:1019E00015D01421401E414351580029F7D014212D
:1019F000414389184A680B46526808334A609A4244
:101A000001D152684A60D1682160E06010BD72B6B1
:101A1000FEE700008C000020A5A5A5A5E808002091
:101A200010B50C48016AFF22120411430162016AD9
:101A30001202114301620848002101618161074AD5
:101A400042610722026106480160FEF783FB002025
:101A500010BD000000ED00E000E000E07FBB0000F2
:101A600088000020F8B516460D46040035D0002D3C
:101A700035D068435030FFF7F1FB07002BD03946D3
:101A800050313846002D2CD001600564C4630446F3
:101A9000FFF790FCE16B206C4143206809186160FE
:101AA0000021A163A060E16B206C491E41432068C6
:101AB0000918E1600021C943204640300546017104
:101AC00041713038FFF742FC20462430FFF73EFCDE
:101AD000FFF77CFC2E733846F8BD72B6FEE7002097
:101AE000C8E70060D1E7FFB5002783B01D460400BA
:101AF00003D00498002802D006E072B6FEE7206CFE
:101B0000002801D072B6FEE7022D04D1E06B012857
:101B100001D072B6FEE700F091FB002804D10598D1
:101B2000002801D072B6FEE7204626461030403627
:101B30000290FFF73FFCA06BE16B884207D3022DB8
:101B400005D0059800284AD0002F4BD04EE02F46F4
:101B50000499A56B0026226C002A11D0002F19D001
:101B6000E068FEF76BFBE168206C091AE16022680F
:101B7000914202D26168081AE060022F17D019E082
:101B80002068002816D1606800F0E0FB06460020BF
:101B900060600FE0A068FEF751FB216CA068401860
:101BA000A0606168884205D32068A06002E0002D33
:101BB00000D06D1E6D1CA563606A002806D020460B
:101BC000243000F035FC002802D103E0002E01D0C3
:101BD000FFF710FCFFF7FAFB012007B0F0BDFFF79D
:101BE000F5FB20E06846FFF749FD0127FFF7EEFB14
:101BF000FFF7C8FEFFF7DEFB04203056401C00D183
:101C0000307105203056401C00D17071FFF7DEFBAB
:101C100005A9684600F01CFA002807D02046FFF707
:101C2000E3FA00F039FC002007B0F0BDFFF7C2FB7B
:101C3000A06BE16B884210D1FFF7C8FB05990298B1
:101C4000FFF78AFD2046FFF7CFFA00F025FC0028B9
:101C500000D06EE7FFF7CEFB6BE7FFF7B7FB204640
:101C6000FFF7C2FA00F018FC63E7FFB583B01E4629
:101C70000F46040002D0002F02D006E072B6FEE745
:101C8000206C002801D072B6FEE7022E04D1E06B72
:101C9000012801D072B6FEE7FEF770FA0190A06B42
:101CA000E16B884208D3022E06D000240198FEF78B
:101CB00069FA204607B0F0BD204640300525009067
:101CC000455739463746A66B226C002A12D0002FA2
:101CD00019D0E068FEF7B2FA216CE068401AE060C3
:101CE0002168884203D2216C6068401AE060022FAC
:101CF00016D018E02068002815D1606800F026FB97
:101D0000002060600FE0A068FEF798FA216CA068E0
:101D10004018A0606168884205D32068A06002E096
:101D2000002E00D0761E761CA663681C04D0009896
:101D30006D1C45710124B9E7606A0028FAD020467D
:101D4000243000F075FB0028F4D005980028F1D06D
:101D500001210160EEE770B50D46040004D0206C4F
:101D6000002803D072B6FEE772B6FEE720680028AE
:101D700004D16068002801D072B6FEE7FEF7FEF9D4
:101D8000A26B0646E06B904219D9214640310520EE
:101D90000856521CA263421C03D0401C4871012407
:101DA0000EE0606A0028FAD02046243000F040FBA4
:101DB0000028F4D0002DF2D001202860EFE70024A5
:101DC0003046FEF7DFF9204670BDF7B5002784B036
:101DD000040003D00598002802D006E072B6FEE7A2
:101DE000206C002801D072B6FEE700F027FA002828
:101DF00004D10699002901D072B6FEE72046254697
:101E0000243040350290FFF7D5FAA66B002E1FD084
:101E1000226C0598002A09D0E1688918E16063689E
:101E2000994201D32168E160FEF708FA761EA663A5
:101E30002069002807D02046103000F0F9FA002869
:101E400001D0FFF7D7FAFFF7C1FA012007B0F0BDC4
:101E50000698002847D0002F03D16846FFF70EFCF4
:101E60000127FFF7B3FAFFF78DFDFFF7A3FA042070
:101E70002856401C00D1287105202856401C00D14E
:101E80006871FFF7A3FA06A9684600F0E1F8002898
:101E90000CD02046FFF7A8F900F0FEFAFFF78AFA07
:101EA000A06B00281FD0FFF791FAACE7FFF782FA8A
:101EB000A06B002807D0FFF789FA2046FFF794F9B6
:101EC00000F0EAFA9FE7FFF781FA06990298FFF718
:101ED00043FC2046FFF788F900F0DEFA002892D193
:101EE000FFF788FA8FE7FFF771FA002007B0F0BD1F
:101EF000F3B5002783B0041E3E4604D0206C0028B2
:101F000003D072B6FEE772B6FEE700F097F900283C
:101F100004D10498002801D072B6FEE72046254679
:101F2000243040350290FFF745FAA06B002817D007
:101F3000401EA0632068002802D1FFF7BDF9606051
:101F40002069002807D02046103000F071FA0028E0
:101F500001D0FFF74FFAFFF739FA012005B0F0BDC5
:101F60000498002802D0002F09D00CE0002E01D0E8
:101F700072B6FEE7FFF72AFA002005B0F0BD68460A
:101F8000FFF77CFB0127FFF721FAFFF7FBFCFFF7C8
:101F900011FA04202856401C00D12871052028562B
:101FA000401C00D16871FFF711FA04A9684600F0DF
:101FB0004FF800280CD02046FFF716F900F06CFA15
:101FC000FFF7F8F9A06B00282AD0FFF7FFF9AAE77E
:101FD000FFF7F0F9A06B002807D0FFF7F7F92046CC
:101FE000FFF702F900F058FA9DE7FFF7EFF92068D4
:101FF000002807D1FFF7DEF9606800F0DDF906463A
:10200000FFF7E4F904990298FFF7A6FB2046FFF7D3
:10201000EBF800F041FA002885D1FFF7EBF982E7F1
:10202000FFF7D4F9002E0FD0FFF7C4F9606A00283B
:1020300004D0206B03210068091A00E000216068C9
:10204000FFF7B4FBFFF7C2F9002005B0F0BD0000B8
:10205000F8B50D46040012D0002D12D0FFF7AAF9F2
:10206000134B9A6866682868911B471C0BD0276839
:10207000DB699F4209D0964207D8012413E072B66B
:10208000FEE772B6FEE700240DE0884208D9401A48
:1020900028600748C169216080686060002402E010
:1020A000002001242860FFF791F92046F8BD0000C8
:1020B0008C000020FFB585B090000D460E9F00906B
:1020C000FFF7CCF806001ED05420FFF7C7F8040035
:1020D000304616D0206305990291089901913E4639
:1020E00000990F9FA5220391FEF7E9F80399206B51
:1020F000091F4018C008C0000090400707D072B602
:10210000FEE7FFF771F90020C04309B0F0BD20469B
:102110002978203001752978002910D06978417517
:10212000697800290BD0A9788175A978002906D093
:10213000E978C175E978002901D02979017600256F
:102140000576032E00D30226E6626664201DA56490
:10215000FFF707F920461830FFF703F92461032041
:10216000811B6462A161E56450200555019A0299C2
:102170000098FFF7ADF82060002F00D03C602646A5
:10218000FFF718F9274D6868401C68602868264FDB
:10219000002803D0286900281ED023E02E6068683C
:1021A00001281FD1002414206043C019FFF7CEF886
:1021B000641C032CF7D31D48FFF7C8F81C48FFF731
:1021C000C5F81C48FFF7C2F81B48FFF7BFF81748CF
:1021D00028631430686305E02868F16AC06A8842A1
:1021E00000D82E60286A401C2862F063F06AE96813
:1021F000884214D814214843C019311DFFF7CDF887
:10220000FFF7E4F82869002806D02868F16AC06A58
:10221000884201D2FFF7EEF8012009B0F0BDE86076
:10222000E8E700008C000020E808002024090020D6
:10223000380900204C090020600900200648016987
:10224000002904D0C06A002803D000207047012074
:1022500070470220704700008C0000200148806811
:10226000704700008C000020F8B5364D0027E86A62
:1022700000280AD06869401C6861FFF752F8A86915
:10228000002800D001273846F8BDAE68761CAE6045
:1022900015D1286B0068002801D072B6FEE7286BC4
:1022A000696B29636863E869401CE861286B006812
:1022B000002813D0286BC068C06840686862686AEC
:1022C000864211D3286B006800280AD0286BC068AA
:1022D000C4686068864216D2686205E00020C04388
:1022E000ECE70020C04368622868C16A14204143BB
:1022F00015484058012800D9012768690028BED137
:10230000FFF70FF8BBE7201DFEF7F4FFA06A0028D7
:1023100003D020461830FEF7EDFFE06AE9688842F6
:102320000DD81421484308494018211DFFF735F8FE
:10233000E06A2968C96A8842C4D30127C2E7E86015
:10234000EFE700008C000020E808002070B50021B5
:102350000446002827D0164D2868844201D072B662
:10236000FEE7A06C002808D0401EA064636CE26AFF
:102370009A4218D0002802D015E072B6FEE7201D60
:10238000FEF7B8FF606C0321E062081AA061E06A02
:10239000E968884209D81421484306494018211D9C
:1023A000FEF7FBFF0121084670BDE860F3E700007F
:1023B0008C000020E808002070B504460020002CA6
:1023C00029D0194DE16A2A68D26A914224D2A069C3
:1023D000002804DB28680321C06A081AA061E06AAB
:1023E0001422124E50436169801981420FD1201D81
:1023F000FEF780FF2868C06AE062E968884211D869
:10240000142148438019211DFEF7C7FF02E0286808
:10241000C06AE062012070BD616C2A68D26A914294
:10242000F8D370BDE860EBE78C000020E8080020DE
:1024300070B5C068C468002C0BD020461830064622
:10244000FEF758FF114DE86A002804D031461048C5
:102450000DE072B6FEE7201DFEF74CFFE06AE9686A
:10246000884210D8142148430A494018211DFEF71C
:1024700094FFE06A2968C96A884202D90120A861EC
:1024800070BD002070BDE860ECE700008C0000200B
:102490004C090020E8080020F8B500202E4D0090DF
:1024A000E86A002808D0FEF785FFE86A401EE86267
:1024B000E86A002802D046E072B6FEE768680028A5
:1024C00041D0264E3068002829D0254FF068C468D6
:1024D00020461830FEF70EFF201DFEF70BFFE06AC6
:1024E000E968884236D814214843C019211DFEF7F7
:1024F00054FFE06A2968C96A884201D30120A861B3
:1025000030680028E2D1002C09D0296B28460968E0
:1025100000291CD0016BC968C968496841626C69AF
:10252000002C09D00126FFF79FFE002800D0AE61E5
:10253000641EF8D100206861A869002803D001203A
:102540000090FEF757FFFEF741FF0098F8BD00210D
:10255000C943E3E7E860C6E78C0000204C0900208F
:10256000E8080020FFB5074683B016460D462C202C
:10257000FEF774FE040031D00197069F0C9800907E
:10258000002D06D0FEF716FF16480068002802D07E
:1025900018E072B6FEE71448FEF7D8FE1348FEF7BF
:1025A000D5FE10481049C1601431016100220C2190
:1025B0000520FFF757FA0B490028086002D00C49A4
:1025C000FEF724FFFEF702FF01982762E661A5618E
:1025D000206000986062201DFEF7C3FE204607B011
:1025E000F0BD0000C400002074090020880900200C
:1025F0006426000810B582B0FEF7DCFE164C206899
:10260000002814D11548FEF7A1FE1548FEF79EFEDE
:102610001248E0601430206100220C210520FFF7F1
:1026200021FA2060002802D00EA1FEF7EFFEFEF78F
:10263000CDFE206800280BD00C49022001910090AB
:10264000002350220AA10C48FFF734FD002801D1D5
:1026500072B6FEE702B010BDC4000020740900206D
:1026600088090020546D725100000000C80000204D
:10267000546D722053766300710F0008F0B51D464B
:1026800083B003460020089E002B14D0134C27680B
:10269000002F0ED0029301920091062915DAFFF760
:1026A000CDFD022809D000231A4669462068FFF7AD
:1026B0001AFA03B0F0BD72B6FEE70023324669464F
:1026C0002068FFF710FA03B0F0BD00232A466946E0
:1026D0003846FFF7CAFA03B0F0BD0000C40000207E
:1026E0000027000800000020D8000000F4000008C7
:1026F000D8270008D8000020280F0000100100088B
:1027000000000000010000000000000000000000C8
:10271000000000000000000000000000007CC6CEA9
:10272000DEF6E67C00307030303030300078CC0C93
:102730003860C0FC0078CC0C380CCC78001C3C6CA9
:10274000CCFE0C0C00FCC0F80C0CCC78003860C03F
:10275000F8CCCC7800FC0C0C183030300078CCCCA5
:1027600078CCCC780078CCCC7C0C1870006666668F
:102770003E06060600C6EEFEFED6D6C600000000E7
:102780000000000000000000AAAAAAAA00000000A1
:102790000000000000000000000000000000000039
:1027A0000000000000000000000000000000000029
:1027B0000000000000000000000000000000000019
:1027C0000000000000000000000000000000000009
:0827D000000000000000000001
:04000005080000B13E
:00000001FF
